S0150000537465707065725F4D6F746F722E73726563BC
S11300000C9434000C943E000C943E000C943E007E
S11300100C943E000C943E000C943E000C943E0064
S11300200C943E000C943E000C943E000C943E0054
S11300300C943E000C943E000C943E000C943E0044
S11300400C943E000C943E000C943E000C943E0034
S11300500C943E000C943E000C943E000C943E0024
S11300600C943E000C943E0011241FBECFEFD8E048
S1130070DEBFCDBF0E9440000C9480000C940000B1
S11300808AB188678AB984EF91E05E9A5D9A5C9838
S11300905B982FEF31EE44E0215030404040E1F7CF
S11300A000C000005E985D9A5C9A5B982FEF31EE79
S11300B044E0215030404040E1F700C000005E9829
S11300C05D985C9A5B9A2FEF31EE44E0215030400A
S11300D04040E1F700C000005E9A5D985C985B9A2E
S11300E02FEF31EE44E0215030404040E1F700C0B2
S11300F00000019751F65E985D985C985B98C3CFB9
S1070100F894FFCF9D
S9030000FC
