S02700005457495F446174615F5472616E736D697373696F6E5F66726F6D5F4D61696E2E73726563D0
S11300000C9465000C9482000C9482000C94820081
S11300100C9482000C9482000C9482000C94820054
S11300200C9482000C9482000C9482000C94820044
S11300300C9482000C9482000C9482000C94820034
S11300400C9482000C9482000C9482000C94820024
S11300500C9482000C9482000C9482000C94820014
S11300600C948F000C948200B60069016901690147
S11300706901690169016901BD00690169016901D9
S11300806901690169016901C800690169016901BE
S11300906901690169016901CF00690169016901A7
S11300A06901690169016901D60069016901690190
S11300B069016901690169011C0169016901690139
S11300C069016901690169015D0111241FBECFEF56
S11300D0D8E0DEBFCDBF11E0A0E0B1E0E0EDF3E099
S11300E002C005900D92A431B107D9F721E0A4E133
S11300F0B1E001C01D92A832B207E1F70E947A0173
S11301000C94E6010C9400008093BB00ECEBF0E04F
S113011080818068808380818F7C808308951F9292
S11301200F920FB60F9211242F933F934F935F9327
S11301306F937F938F939F93AF93BF93EF93FF93AB
S11301408091B900E82FE87F8E2F90E090931701FB
S1130150809316018E2F90E0FC013897E133F1056E
S113016008F0B7C0EC5CFF4F0C94E00180912601CD
S1130170909127010E948400ACC010921501109246
S1130180140180912601909127010E948400A1C04E
S113019080911C0190911D010E9484009AC080915D
S11301A01C0190911D010E94840093C08091140150
S11301B090911501009781F480911A0190911B018F
S11301C00E948400809114019091150101969093EE
S11301D01501809314017DC02091180130911901FB
S11301E02F5F3F4F82179307D4F4880F991FFC01A8
S11301F0E45EFE4F0190F081E02DEE0FFF1FE05012
S1130200FF4F808191810E9484008091140190911C
S11302101501019690931501809314015AC0109210
S1130220150110921401ECEBF0E080818069808369
S113023080818F7D80834DC0809114019091150140
S11302408130910581F480911A0190911B010E94E3
S113025084008091140190911501019690931501E9
S11302608093140136C086309105D4F4880F991F09
S1130270FC01E25EFE4F0190F081E02DEE0FFF1FC6
S1130280E050FF4F808191810E948400809114018D
S1130290909115010196909315018093140119C052
S11302A01092150110921401ECEBF0E08081806A49
S11302B0808380818F7E80830CC010921501109200
S11302C01401ECEBF0E08081806A808380818F7E72
S11302D08083FF91EF91BF91AF919F918F917F9117
S11302E06F915F914F913F912F910F900FBE0F909F
S11302F01F90189580E790E0909327018093260142
S113030084E090E0909319018093180110921D01EC
S113031010921C0187E490E090931B0180931A01D2
S1130320EEE1F1E0118210821382128215821482AE
S11303301782168288E48093B800ECEBF0E08081A9
S1130340856080837894ACEBB0E0EEE1F1E08C91D1
S1130350806A8C932FEF81EE94E02150804090408E
S1130360E1F700C00000868197818930910521F56D
S1130370178216828481958189309105C9F415828A
S11303801482828193818930910571F413821282DF
S1130390808191818930910519F411821082D7CF1F
S11303A0019691838083D3CF019693838283CFCFA9
S11303B0019695838483CBCF019697838683C7CF99
S11303C0EE0FFF1F0590F491E02D0994F894FFCFF0
S11303D03F0006005B004F0066006D007D000700D3
S10703E07F006F0027
S9030000FC
