:100000000C9434000C943E000C943E000C943E0082
:100010000C943E000C943E000C943E000C943E0068
:100020000C943E000C943E000C943E000C943E0058
:100030000C943E000C943E000C943E000C943E0048
:100040000C943E000C943E000C943E000C943E0038
:100050000C943E000C943E000C943E000C943E0028
:100060000C943E000C943E0011241FBECFEFD8E04C
:10007000DEBFCDBF0E9452000C9481000C940000A2
:1000800087E68093C4001092C50088E18093C10088
:1000900078940895E0ECF0E0908195FFFDCF809397
:1000A000C6000895CF93DF9300D000D0CDB7DEB760
:1000B00081E3898382E38A8383E38B8384E38C8374
:1000C0000E9440007E0125E0E20EF11C8E010F5FD0
:1000D0001F4FF80181918F010E944A008FED9EE22F
:1000E0000197F1F700C000000E151F0591F79FEF73
:1000F000E1EEF4E09150E040F040E1F700C0000094
:06010000E5CFF894FFCFEB
:00000001FF
