:100000000C9434000C943E000C943E000C943E0082
:100010000C943E000C943E000C943E000C943E0068
:100020000C943E000C943E000C943E000C943E0058
:100030000C943E000C943E000C943E000C943E0048
:100040000C943E000C943E000C943E000C943E0038
:100050000C943E000C943E000C943E000C943E0028
:100060000C943E000C943E0011241FBECFEFD8E04C
:10007000DEBFCDBF0E9440000C9466000C940000CF
:10008000219AE0E8F0E0808180688083808183604D
:100090008083E1E8F0E0808182608083EAE7F0E03D
:1000A000808180688083808187608083C8E7D0E01A
:1000B000A8E8B0E0808180648083808186FDFDCFE8
:1000C0008881998111969C938E93F4CFF894FFCFF9
:00000001FF
