:100000000C9465000C9482000C9482000C94820085
:100010000C9482000C9482000C9482000C94820058
:100020000C9482000C9482000C9482000C94820048
:100030000C9482000C9482000C9482000C94820038
:100040000C9482000C9482000C9482000C94820028
:100050000C9482000C9482000C9482000C94820018
:100060000C9484000C948200F2001C011C011C0101
:100070001C011C011C011C01F6001C011C011C01BF
:100080001C011C011C011C01FA001C011C011C01AB
:100090001C011C011C011C01FE001C011C011C0197
:1000A0001C011C011C011C0101011C011C011C0183
:1000B0001C011C011C011C0113011C011C011C0161
:1000C0001C011C011C011C01160111241FBECFEFD5
:1000D000D8E0DEBFCDBF11E0A0E0B1E0E6EFF2E096
:1000E00002C005900D92AA30B107D9F721E0AAE02D
:1000F000B1E001C01D92AB30B207E1F70E943301BD
:100100000C9479010C9400001F920F920FB60F927D
:1001100011248F938091B900887F80930A018F9179
:100120000F900FBE0F901F90189587E68093C40024
:100130001092C50088E18093C10078940895E0ECA6
:10014000F0E080818823ECF78091C60008958093C9
:10015000B800ECEBF0E080818560808378940895AE
:10016000ECEBF0E080818069808380818F7D8083EB
:1001700008958093BB00ECEBF0E080818068808381
:1001800080818F7C808308958F929F92AF92BF92DF
:10019000CF92DF92EF92FF920F931F93CF93DF9353
:1001A0007C01ECEBF0E09081906A9083FF200CF4EE
:1001B0004DC0490100E010E0CCEBD0E0A42EB12C02
:1001C000C62ED12C88818823ECF7E0910A018E2F6E
:1001D00090E0FC013897E133F10570F5EC5CFF4FDE
:1001E0000C947301C6010E94B90026C0C6010E948A
:1001F000B90022C0C5010E94B9001EC00E94B00013
:100200001BC00E151F0554F4F401E00FF11F80818F
:1002100090E00E94B9000F5F1F4F0EC00E94B00017
:100220000F5F1F4F09C00E94B00006C08881806A1E
:10023000888388818F7E888387E691E00197F1F734
:1002400000C00000E016F1060CF0BCCFDF91CF91AA
:100250001F910F91FF90EF90DF90CF90BF90AF90E4
:100260009F908F900895CF93DF93CDB7DEB72F97F0
:100270000FB6F894DEBF0FBECDBF8AE0E0E0F1E03C
:10028000DE01169601900D928A95E1F70E94950085
:1002900088E40E94A7007E0186E0E80EF11C0F2E84
:1002A000F7E4DF2EF02D8E010E5F1F4F0E949F009E
:1002B000F701E80FF11D8081F80181938F01EE15A0
:1002C000FF05A1F7D9829E012F5F3F4F40E060E715
:1002D00085E090E00E94C4008FE19EE40197F1F771
:1002E00000C00000E0CFEE0FFF1F0590F491E02D5D
:0602F0000994F894FFCF11
:0A02F6003F065B4F666D7D077F6FCA
:00000001FF
