:100000000C9434000C943E000C943E000C943E0082
:100010000C943E000C943E000C943E000C943E0068
:100020000C943E000C943E000C943E000C943E0058
:100030000C943E000C943E000C943E000C943E0048
:100040000C943E000C943E000C943E000C943E0038
:100050000C943E000C943E000C943E000C943E0028
:100060000C943E000C943E0011241FBECFEFD8E04C
:10007000DEBFCDBF0E9440000C945A000C940000DB
:10008000259AEAE7F0E0808180688083808187603C
:100090008083A8E7B0E0808180648083808186FDD2
:1000A000FDCF8D919C911197892B11F42D9AF3CF4F
:0800B0002D98F1CFF894FFCF69
:00000001FF
