S0150000546573745F4772757070655F422E73726563FC
S11300000C9434000C943E000C943E000C943E007E
S11300100C943E000C943E000C943E000C943E0064
S11300200C943E000C943E000C943E000C943E0054
S11300300C943E000C943E000C943E000C943E0044
S11300400C943E000C943E000C943E000C943E0034
S11300500C943E000C943E000C943E000C943E0024
S11300600C943E000C943E0011241FBECFEFD8E048
S1130070DEBFCDBF0E9440000C9462000C940000CF
S1130080569A17BC84B5806884BD84B5816084BDEC
S113009085B5856085BD95E083EF97BD2FEF39E683
S11300A048E1215030404040E1F700C0000087BDE6
S11300B02FEF39E648E1215030404040E1F700C0DD
S10B00C00000EBCFF894FFCF20
S9030000FC
