:100000000C9434000C9446000C9446000C9446006A
:100010000C9446000C9446000C9446000C94460048
:100020000C9446000C9446000C9446000C94460038
:100030000C9446000C9446000C9446000C94460028
:100040000C9446000C9446000C9446000C94460018
:100050000C9446000C9446000C9446000C94460008
:100060000C9446000C94460011241FBECFEFD8E03C
:10007000DEBFCDBF21E0A0E0B1E001C01D92A23003
:10008000B207E1F70E9448000C9478000C9400003D
:10009000569A80E887BD84B5806884BD84B5836046
:1000A00084BD85B5826085BD21E030E0809100018E
:1000B00090910101892B59F087B58F5F87BD87B576
:1000C0008F3F79F410920101109200010AC087B5A8
:1000D000815087BD87B5811104C030930101209301
:1000E00000018FE99FE00197F1F700C00000DECF2B
:0400F000F894FFCFB2
:00000001FF
