S01700004449432D54657374325F4144435F422E7372656376
S11300000C949F000C94BC000C94BC000C94BC0099
S11300100C94BC000C94BC000C94BC000C94BC006C
S11300200C94BC000C94BC000C94BC000C94BC005C
S11300300C94BC000C94BC000C94BC000C94BC004C
S11300400C94BC000C94BC000C94BC000C94BC003C
S11300500C94BC000C946F010C94BC000C94BC0078
S11300600C94B6010C94BC00C600C800CA00CC00B5
S1130070CE00D000D200D400D600D800DA00DC00D4
S1130080DE00E000E200E400F000F200F400F6001C
S1130090F800FA00FC00FE0000010201D101A602F2
S11300A0A602A602A602A602A602A602DE01A602D5
S11300B0A602A602A602A602A602A602EB01A602B8
S11300C0A602A602A602A602A602A602FF01A60294
S11300D0A602A602A602A602A602A6020802A6027A
S11300E0A602A602A602A602A602A6023802A6023A
S11300F0A602A602A602A602A602A6024102A60221
S1130100A602A602A602A602A602A6024A02A60207
S1130110A602A602A602A602A602A6026302A602DE
S1130120A602A602A602A602A602A6026C02A602C5
S1130130A602A602A602A602A602A6029E021124F6
S11301401FBECFEFD8E0DEBFCDBF11E0A0E0B1E02D
S1130150EAE7F9E002C005900D92A430B107D9F79F
S113016021E0A4E0B1E001C01D92A631B207E1F79D
S11301700E94B3020C94BB040C94000080319105DE
S113018028F5FC01EC5CFF4F0C94A1048FE3089567
S113019086E008958BE508958FE4089586E6089532
S11301A08DE608958DE7089587E008958FE7089513
S11301B08FE6089587E708958CE7089589E3089505
S11301C08FE5089589E7089581E7089580E008950B
S11301D08A309105C8F4FC01EC5BFF4F0C94A10438
S11301E08FEB089586E808958BED08958FEC0895BC
S11301F086EE08958DEE08958DEF089587E80895AD
S11302008FEF08958FEE089580E00895CF92DF92E6
S1130210EF92FF920F931F93CF93DF93C4E0D1E04B
S11302201982188287E690E09B838A83C09012012A
S1130230D0901301E0901401F090150120E030E01B
S113024040E251E4C701B6010E94EA020E945C0345
S11302500AE010E0CB01B8010E948D040E94BE00A8
S113026090E09D838C83C701B6010E945C03CB019F
S1130270B8010E948D040E94E80090E09F838E8361
S113028020E030E040E251E4C701B6010E942004BE
S11302900E945C03CB01B8010E948D040E94BE0041
S11302A090E09987888720E030E048EC52E4C70169
S11302B0B6010E9420040E945C03CB01B8010E9495
S11302C08D040E94BE0090E09B878A87DF91CF91C6
S11302D01F910F91FF90EF90DF90CF9008951F92A0
S11302E00F920FB60F9211242F933F934F935F9366
S11302F06F937F938F939F93AF93BF93EF93FF93EA
S1130300809178006091790070E0762F6627680FFD
S1130310711D6F5F7F4F072E000C880B990B0E9495
S113032094032DEC3CEC4CE85FE30E94200420E0B5
S113033030E040E85AE30E94200460931201709375
S113034013018093140190931501FF91EF91BF91D4
S1130350AF919F918F917F916F915F914F913F9159
S11303602F910F900FBE0F901F9018951F920F9210
S11303700FB60F9211242F933F938F939F93AF93B4
S1130380BF93EF93FF93E091B9008E2F90E0FC01AF
S11303903897E135F10508F0D9C0E25BFF4F0C94C2
S11303A0A104809102018093BB00ECEBF0E080811A
S11303B08068808380818F7C8083C8C080910201A3
S11303C08093BB00ECEBF0E08081806880838081C7
S11303D08F7C8083BBC0E0911001F0911101EE0F7E
S11303E0FF1FEC5FFE4F80818093BB00ECEBF0E0DD
S11303F080818068808380818F7C8083A7C0ECEBC0
S1130400F0E080818068808380818F7C80839EC0BF
S113041080911001909111010196909311018093A4
S1130420100120910001309101012F5F3F4F82178D
S1130430930769F4ECEBF0E080818069808380812C
S11304408F7D808310921101109210017FC0880F5C
S1130450991FFC01EC5FFE4F80818093BB00ECEBA5
S1130460F0E080818068808380818F7C80836EC08F
S1130470ECEBF0E080818068808380818F7C8083D6
S113048065C0ECEBF0E080818068808380818F7EA2
S113049080835CC08091BB00E0911001F091110158
S11304A0EE0FFF1FEC5FFE4F90E091838083ECEB37
S11304B0F0E080818068808380818F7C808380816C
S11304C08064808343C0ECEBF0E0808180688083AB
S11304D080818F7E80833AC08091100190911101B8
S11304E001969093110180931001209100013091A5
S11304F001012F5F3F4F8217930749F4ECEBF0E0C3
S113050080818068808380818F7880831FC0209160
S1130510BB00880F991FFC01EC5FFE4F822F90E017
S113052091838083ECEBF0E080818068808380811C
S11305308F7C808380818064808308C0ECEBF0E052
S113054080818069808380818F7D8083FF91EF919A
S1130550BF91AF919F918F913F912F910F900FBEBB
S11305600F901F901895ECE7F0E08081836C8083F6
S1130570EAE7F0E080818F688083E8EBF0E0808137
S113058088648083ECEBF0E08081816080838081EB
S1130590846080830E94060178940AE710E0CCEB23
S11305A0D0E00E9406018FE99FE00197F1F700C0B7
S11305B00000F801808180648083FFEF29E688E1F0
S11305C0F15020408040E1F700C000008881806A3B
S11305D08883E7CF0E94FE020C94E6030E94DF03A7
S11305E058F00E94D80340F029F45F3F29F00C949E
S11305F0CF0351110C941A040C94D5030E94F703F1
S113060068F39923B1F3552391F3951B550BBB273D
S1130610AA2762177307840738F09F5F5F4F220F82
S1130620331F441FAA1FA9F335D00E2E3AF0E0E879
S113063032D091505040E695001CCAF72BD0FE2FC3
S113064029D0660F771F881FBB1F26173707480757
S1130650AB07B0E809F0BB0B802DBF01FF2793580F
S11306605F4F3AF09E3F510578F00C94CF030C9401
S11306701A045F3FE4F3983ED4F386957795679523
S1130680B795F7959F5FC9F7880F911D9695879544
S113069097F90895E1E0660F771F881FBB1F621763
S11306A073078407BA0720F0621B730B840BBA0B21
S11306B0EE1F88F7E09508950E9463036894B111D2
S11306C00C941A0408950E94FF0388F09F5798F031
S11306D0B92F9927B751B0F0E1F0660F771F881F43
S11306E0991F1AF0BA95C9F714C0B13091F00E945D
S11306F01904B1E008950C941904672F782F882702
S1130700B85F39F0B93FCCF3869577956795B39583
S1130710D9F73EF490958095709561957F4F8F4FF2
S11307209F4F0895E89409C097FB3EF490958095F7
S1130730709561957F4F8F4F9F4F9923A9F0F92FA3
S113074096E9BB279395F695879577956795B79521
S1130750F111F8CFFAF4BB0F11F460FF1BC06F5F07
S11307607F4F8F4F9F4F16C0882311F096E911C019
S1130770772321F09EE8872F762F05C0662371F03A
S113078096E8862F70E060E02AF09A95660F771F4E
S1130790881FDAF7880F9695879597F9089597F942
S11307A09F6780E870E060E008959FEF80EC089513
S11307B000240A941616170618060906089500243C
S11307C00A9412161306140605060895092E0394B6
S11307D0000C11F4882352F0BB0F40F4BF2B11F42A
S11307E060FF04C06F5F7F4F8F4F9F4F089557FD89
S11307F09058440F551F59F05F3F71F04795880F8B
S113080097FB991F61F09F3F79F087950895121621
S113081013061406551FF2CF4695F1DF08C01616CD
S113082017061806991FF1CF86957105610508947E
S11308300895E894BB2766277727CB0197F9089595
S11308400E9433040C94E6030E94D80338F00E94FB
S1130850DF0320F0952311F00C94CF030C94D503FF
S113086011240C941A040E94F70370F3959FC1F3AA
S1130870950F50E0551F629FF001729FBB27F00D4A
S1130880B11D639FAA27F00DB11DAA1F649F66279F
S1130890B00DA11D661F829F2227B00DA11D621FEE
S11308A0739FB00DA11D621F839FA00D611D221FA8
S11308B0749F3327A00D611D231F849F600D211D8C
S11308C0822F762F6A2F11249F5750409AF0F1F00F
S11308D088234AF0EE0FFF1FBB1F661F771F881F78
S11308E091505040A9F79E3F510580F00C94CF03DE
S11308F00C941A045F3FE4F3983ED4F386957795FD
S11309006795B795F795E7959F5FC1F7FE2B880F1D
S1130910911D9695879597F9089597FB072E16F4E0
S1130920009407D077FD09D00E94A70407FC05D0E6
S11309303EF4909581959F4F0895709561957F4FF2
S11309400895EE0FFF1F0590F491E02D0994AA1B62
S1130950BB1B51E107C0AA1FBB1FA617B70710F0A6
S1130960A61BB70B881F991F5A95A9F780959095D8
S10D0970BC01CD010895F894FFCFF7
S107097A0500700000
S9030000FC
