:100000000C9465000C9482000C9482000C94820085
:100010000C9482000C9482000C9482000C94820058
:100020000C9482000C9482000C9482000C94820048
:100030000C9482000C9482000C9482000C94820038
:100040000C9482000C9482000C9482000C94820028
:100050000C9482000C9484000C9482000C94820016
:100060000C949A000C948200F600200120012001DB
:100070002001200120012001FA002001200120019F
:100080002001200120012001FE002001200120018B
:100090002001200120012001020120012001200176
:1000A0002001200120012001050120012001200163
:1000B0002001200120012001170120012001200141
:1000C00020012001200120011A0111241FBECFEFC1
:1000D000D8E0DEBFCDBF11E0A0E0B1E0EEE8F3E094
:1000E00002C005900D92AA30B107D9F721E0AAE02D
:1000F000B1E001C01D92AD30B207E1F70E943701B7
:100100000C94C5010C9400001F920F920FB60F9231
:1001100011248F939F938091780090917900909310
:100120000C0180930B019F918F910F900FBE0F9048
:100130001F9018951F920F920FB60F9211248F9354
:100140008091B900887F80930A018F910F900FBE34
:100150000F901F9018958093B800ECEBF0E0808131
:100160008560808378940895ECEBF0E0808180696D
:10017000808380818F7D808308958093BB00ECEB2A
:10018000F0E080818068808380818F7C8083089507
:100190008F929F92AF92BF92CF92DF92EF92FF9297
:1001A0000F931F93CF93DF937C01ECEBF0E09081F2
:1001B000906A9083FF200CF44DC0490100E010E0EC
:1001C000CCEBD0E0A42EB12CC62ED12C8881882374
:1001D000ECF7E0910A018E2F90E0FC013897E133B3
:1001E000F10570F5EC5CFF4F0C94AB01C6010E9469
:1001F000BD0026C0C6010E94BD0022C0C5010E94EC
:10020000BD001EC00E94B4001BC00E151F0554F493
:10021000F401E00FF11F808190E00E94BD000F5FAC
:100220001F4F0EC00E94B4000F5F1F4F09C00E94F5
:10023000B40006C08881806A888388818F7E888325
:1002400087E691E00197F1F700C00000E016F106A3
:100250000CF0BCCFDF91CF911F910F91FF90EF90E9
:10026000DF90CF90BF90AF909F908F900895CF93E5
:10027000DF93CDB7DEB72F970FB6F894DEBF0FBE72
:10028000CDBF8AE0E0E0F1E0DE01169601900D922C
:100290008A95E1F7EAE7F0E08081886880838081D1
:1002A0008760808388E40E94AB0078940F2EFAE781
:1002B000EF2EF12CF02D0F2EF7E4DF2EF02D0AE0BB
:1002C00010E0F701808180648083FFEF23EC89E0F8
:1002D000F15020408040E1F700C00000D9828091B9
:1002E0000B0190910C010097C1F09E012A5F3F4FD6
:1002F000B8010E949701E6E0F0E0EC0FFD1FE80F67
:10030000F91F8081F90182939F01862F972F009713
:1003100079F710920C0110920B019E012F5F3F4F55
:1003200040E060E785E090E00E94C800CACF97FBFC
:10033000072E16F4009407D077FD09D00E94B10172
:1003400007FC05D03EF4909581959F4F08957095D8
:1003500061957F4F0895EE0FFF1F0590F491E02DFA
:100360000994AA1BBB1B51E107C0AA1FBB1FA617FC
:10037000B70710F0A61BB70B881F991F5A95A9F74E
:0E03800080959095BC01CD010895F894FFCFB3
:0A038E003F065B4F666D7D077F6F31
:00000001FF
