S00F00004144435F4932432E7372656330
S11300000C9465000C9482000C9482000C94820081
S11300100C9482000C9482000C9482000C94820054
S11300200C9482000C9482000C9482000C94820044
S11300300C9482000C9482000C9482000C94820034
S11300400C9482000C9482000C9482000C94820024
S11300500C9482000C9484000C9482000C94820012
S11300600C949A000C948200F600200120012001D7
S11300702001200120012001FA002001200120019B
S11300802001200120012001FE0020012001200187
S11300902001200120012001020120012001200172
S11300A0200120012001200105012001200120015F
S11300B0200120012001200117012001200120013D
S11300C020012001200120011A0111241FBECFEFBD
S11300D0D8E0DEBFCDBF11E0A0E0B1E0E8EFF7E08B
S11300E002C005900D92AA30B107D9F721E0AAE029
S11300F0B1E001C01D92AD30B207E1F70E943701B3
S11301000C94FA030C9400001F920F920FB60F92F6
S113011011248F939F93809178009091790090930C
S11301200C0180930B019F918F910F900FBE0F9044
S11301301F9018951F920F920FB60F9211248F9350
S11301408091B900887F80930A018F910F900FBE30
S11301500F901F9018958093B800ECEBF0E080812D
S11301608560808378940895ECEBF0E08081806969
S1130170808380818F7D808308958093BB00ECEB26
S1130180F0E080818068808380818F7C8083089503
S11301908F929F92AF92BF92CF92DF92EF92FF9293
S11301A00F931F93CF93DF937C01ECEBF0E09081EE
S11301B0906A9083FF200CF44DC0490100E010E0E8
S11301C0CCEBD0E0A42EB12CC62ED12C8881882370
S11301D0ECF7E0910A018E2F90E0FC013897E133AF
S11301E0F10570F5EC5CFF4F0C94E003C6010E942E
S11301F0BD0026C0C6010E94BD0022C0C5010E94E8
S1130200BD001EC00E94B4001BC00E151F0554F48F
S1130210F401E00FF11F808190E00E94BD000F5FA8
S11302201F4F0EC00E94B4000F5F1F4F09C00E94F1
S1130230B40006C08881806A888388818F7E888321
S113024087E691E00197F1F700C00000E016F1069F
S11302500CF0BCCFDF91CF911F910F91FF90EF90E5
S1130260DF90CF90BF90AF909F908F900895CF93E1
S1130270DF93CDB7DEB72F970FB6F894DEBF0FBE6E
S1130280CDBF8AE0E0E0F1E0DE01169601900D9228
S11302908A95E1F7549AECE7F0E08081886C8083DA
S11302A0EAE7F0E0808188688083808187608083CA
S11302B088E40E94AB0078940F2EFAE7EF2EF12C1D
S11302C0F02D0F2EF7E4DF2EF02D0AE010E0F701F9
S11302D0808180648083FFEF23EC89E0F15020402B
S11302E08040E1F700C00000D98260910B01709159
S11302F00C01072E000C880B990B0E94D3022EEAE6
S113030037E242EA53E40E94BC0120E030E048ECCA
S113031052E40E945F030E949B02072E000C880B8C
S1130320990B0E94D30226EF38E24CE95FE30E9466
S113033029020E949B02CB010097A1F09E012A5F33
S11303403F4FB8010E94CC03E6E0F0E0EC0FFD1F44
S1130350E80FF91F8081F90182939F01862F972F5F
S1130360009779F79E012F5F3F4F40E060E785E0FB
S113037090E00E94C800ABCF5058BB27AA270E9428
S1130380D4010C9425030E94170338F00E941E0325
S113039020F039F49F3F19F426F40C9414030EF45E
S11303A0E095E7FB0C940E03E92F0E94360358F303
S11303B0BA17620773078407950720F079F4A6F546
S11303C00C9458030EF4E0950B2EBA2FA02D0B01BC
S11303D0B90190010C01CA01A0011124FF27591B86
S11303E099F0593F50F4503E68F11A16F040A22F8C
S11303F0232F342F4427585FF3CF469537952795FD
S1130400A795F0405395C9F77EF41F16BA0B620BFB
S1130410730B840BBAF09150A1F0FF0FBB1F661F42
S1130420771F881FC2F70EC0BA0F621F731F841F85
S113043048F4879577956795B795F7959E3F08F0AB
S1130440B0CF9395880F08F09927EE0F979587956D
S113045008950E943D020C9425030E941E0358F047
S11304600E94170340F029F45F3F29F00C940E0317
S113047051110C9459030C9414030E94360368F32D
S11304809923B1F3552391F3951B550BBB27AA2749
S113049062177307840738F09F5F5F4F220F331F83
S11304A0441FAA1FA9F335D00E2E3AF0E0E832D04B
S11304B091505040E695001CCAF72BD0FE2F29D04E
S11304C0660F771F881FBB1F261737074807AB0720
S11304D0B0E809F0BB0B802DBF01FF2793585F4F95
S11304E03AF09E3F510578F00C940E030C94590396
S11304F05F3FE4F3983ED4F3869577956795B79577
S1130500F7959F5FC9F7880F911D9695879597F981
S11305100895E1E0660F771F881FBB1F62177307FA
S11305208407BA0720F0621B730B840BBA0BEE1F0F
S113053088F7E09508950E94A2026894B1110C9482
S1130540590308950E943E0388F09F5798F0B92FED
S11305509927B751B0F0E1F0660F771F881F991FF4
S11305601AF0BA95C9F714C0B13091F00E9458033B
S1130570B1E008950C945803672F782F8827B85F4B
S113058039F0B93FCCF3869577956795B395D9F74C
S11305903EF490958095709561957F4F8F4F9F4F56
S11305A00895E89409C097FB3EF490958095709562
S11305B061957F4F8F4F9F4F9923A9F0F92F96E9AB
S11305C0BB279395F695879577956795B795F11120
S11305D0F8CFFAF4BB0F11F460FF1BC06F5F7F4FBD
S11305E08F4F9F4F16C0882311F096E911C07723CF
S11305F021F09EE8872F762F05C0662371F096E8D8
S1130600862F70E060E02AF09A95660F771F881FA6
S1130610DAF7880F9695879597F9089597F99F6764
S113062080E870E060E008959FEF80EC0895002476
S11306300A941616170618060906089500240A9443
S113064012161306140605060895092E0394000CC9
S113065011F4882352F0BB0F40F4BF2B11F460FF58
S113066004C06F5F7F4F8F4F9F4F089557FD905881
S1130670440F551F59F05F3F71F04795880F97FB62
S1130680991F61F09F3F79F087950895121613061C
S11306901406551FF2CF4695F1DF08C0161617064B
S11306A01806991FF1CF8695710561050894089580
S11306B0E894BB2766277727CB0197F908950E9412
S11306C072030C9425030E94170338F00E941E0342
S11306D020F0952311F00C940E030C9414031124B0
S11306E00C9459030E94360370F3959FC1F3950F40
S11306F050E0551F629FF001729FBB27F00DB11DA2
S1130700639FAA27F00DB11DAA1F649F6627B00D31
S1130710A11D661F829F2227B00DA11D621F739F1A
S1130720B00DA11D621F839FA00D611D221F749F28
S11307303327A00D611D231F849F600D211D822F6F
S1130740762F6A2F11249F5750409AF0F1F0882396
S11307504AF0EE0FFF1FBB1F661F771F881F9150C3
S11307605040A9F79E3F510580F00C940E030C9461
S113077059035F3FE4F3983ED4F3869577956795E4
S1130780B795F795E7959F5FC1F7FE2B880F911DED
S11307909695879597F9089597FB072E16F400947C
S11307A007D077FD09D00E94E60307FC05D03EF48C
S11307B0909581959F4F0895709561957F4F089509
S11307C0EE0FFF1F0590F491E02D0994AA1BBB1BAB
S11307D051E107C0AA1FBB1FA617B70710F0A61B3D
S11307E0B70B881F991F5A95A9F780959095BC015E
S10B07F0CD010895F894FFCF38
S10D07F83F065B4F666D7D077F6FBF
S9030000FC
