S0200000546573745F4772757070655F425F6F686E655F44656C61792E737265639A
S11300000C9434000C9449000C9449000C9449005D
S11300100C9449000C9449000C9449000C94490038
S11300200C9449000C9449000C9449000C944B0026
S11300300C9449000C9449000C9449000C94490018
S11300400C9449000C9449000C9449000C94490008
S11300500C9449000C9449000C9449000C944900F8
S11300600C9449000C94490011241FBECFEFD8E032
S1130070DEBFCDBF11E0A0E0B1E0E0E2F1E002C0FC
S113008005900D92A230B107D9F70E946E000C942E
S11300908E000C9400001F920F920FB60F92112441
S11300A08F939F938091000190910101892B39F0E6
S11300B085E087BD109201011092000108C083EF12
S11300C087BD81E090E090930101809300019F91AE
S11300D08F910F900FBE0F901F901895569A84B56C
S11300E0806884BD84B5816084BD85B5856085BD27
S11300F017BCE1E8F0E080818860808380818560BE
S11301008083EFE6F0E08081826080838FEF8093CC
S113011088008EE2809389007894FFCFF894FFCF13
S10501200100D8
S9030000FC
