S01700004763634170706C69636174696F6E322E737265635A
S11300000C9434000C943E000C943E000C943E007E
S11300100C943E000C943E000C943E000C943E0064
S11300200C943E000C943E000C943E000C943E0054
S11300300C943E000C943E000C943E000C943E0044
S11300400C943E000C943E000C943E000C943E0034
S11300500C943E000C943E000C943E000C943E0024
S11300600C943E000C943E0011241FBECFEFD8E048
S1130070DEBFCDBF0E9440000C945C000C940000D5
S1130080569A84B5836884BD85B5816085BD80E05A
S113009087BDEFE1FEE43197F1F700C000008F5F08
S11300A08F3FB1F787BDEFE1FEE43197F1F700C070
S10F00B000008150B9F7EBCFF894FFCFAB
S9030000FC
