:100000000C9434000C943E000C943E000C943E0082
:100010000C943E000C943E000C943E000C943E0068
:100020000C943E000C943E000C943E000C943E0058
:100030000C943E000C943E000C943E000C943E0048
:100040000C943E000C943E000C943E000C943E0038
:100050000C943E000C943E000C943E000C943E0028
:100060000C943E000C943E0011241FBECFEFD8E04C
:10007000DEBFCDBF0E9440000C947A000C940000BB
:10008000569A5E9A12BC11BC84E080BDFA9AF99A25
:10009000F999FECF12BC11BCF89A5E9A5E9A2FEFC6
:1000A00080E792E0215080409040E1F700C00000DE
:1000B0005E982FEF80E792E0215080409040E1F77A
:1000C00000C0000080B5843049F75E9A2FEF80E7CA
:1000D00092E0215080409040E1F700C000005E981F
:1000E0002FEF80E792E0215080409040E1F700C080
:0800F0000000D4CFF894FFCF0B
:00000001FF
