S02300005457495F446174615F5472616E736D697373696F6E5F436C6F636B2E7372656380
S11300000C9434000C9451000C9451000C94510045
S11300100C9451000C9451000C9451000C94510018
S11300200C9451000C9451000C9451000C94510008
S11300300C9451000C9451000C9451000C945100F8
S11300400C9451000C9451000C9451000C945100E8
S11300500C9451000C9451000C9451000C945100D8
S11300600C94CF000C94510011241FBECFEFD8E0A4
S1130070DEBFCDBF11E0A0E0B1E0ECE5F3E002C0EB
S113008005900D92A431B107D9F721E0A4E1B1E0C4
S113009001C01D92A432B207E1F70E949C010C94A6
S11300A0AC010C9400008093BB00ECEBF0E0808189
S11300B08068808380818F7C80830895813091055E
S11300C019F11CF4892B41F067C082309105A1F12C
S11300D0039709F449C060C08091160190911701FB
S11300E08A3091054CF081E090E090931701809361
S11300F0160180E090E008959C012F5F3F4F3093FC
S11301001701209316010895809118019091190107
S11301108A3091054CF081E090E09093190180932E
S1130120180180E090E008959C012F5F3F4F3093C9
S1130130190120931801089580911A0190911B01CF
S11301408A3091054CF081E090E090931B018093FC
S11301501A0180E090E008959C012F5F3F4F309397
S11301601B0120931A01089580911C0190911D0197
S11301708A3091054CF081E090E090931D018093CA
S11301801C0180E090E008959C012F5F3F4F309365
S11301901D0120931C0108958FEF9FEF08951F9276
S11301A00F920FB60F9211242F933F934F935F93A7
S11301B06F937F938F939F93AF93BF93EF93FF932B
S11301C08091B900887F282F30E030932301209359
S11301D022018831B1F028F4883049F0803161F08F
S11301E09AC0883279F1883309F489C094C080E7D1
S11301F090E00E9453008FC080E790E00E9453007B
S11302008AC08091140190911501009759F480E0FF
S113021090E00E94530084E090E090931501809355
S1130220140179C0181619060CF075C00E94530009
S11302308091140190911501019790931501809379
S1130240140169C08091200190912101009719F057
S11302500197E9F060C087E490E00E9453002FEF1B
S113026087E893E1215080409040E1F700C000000E
S1130270ECEBF0E08081806A808380818F7E8083D4
S113028081E090E0909321018093200144C080910B
S11302901E0190911F018430910534F50E945E0087
S11302A0880F991FFC01E050FF4F808191810E94CB
S11302B053002FEF87E893E1215080409040E1F70D
S11302C000C00000ECEBF0E08081806A80838081D4
S11302D08F7E808380911E0190911F0101969093DF
S11302E01F0180931E0117C00497A9F410922101E5
S11302F01092200110921F0110921E010CC0109246
S1130300210110922001ECEBF0E08081806A80836F
S113031080818F7E8083FF91EF91BF91AF919F91F8
S11303208F917F916F915F914F913F912F910F909A
S11303300FBE0F901F90189588E48093B80088EF43
S11303408093B900ECEBF0E0808181608083789445
S10F03508081846A8083FFCFF894FFCF83
S113035C3F0006005B004F0066006D007D00070047
S107036C7F006F009B
S9030000FC
