:100000000C9434000C943E000C943E000C943E0082
:100010000C943E000C943E000C943E000C943E0068
:100020000C943E000C943E000C943E000C943E0058
:100030000C943E000C943E000C943E000C943E0048
:100040000C943E000C943E000C943E000C943E0038
:100050000C943E000C943E000C943E000C943E0028
:100060000C943E000C943E0011241FBECFEFD8E04C
:10007000DEBFCDBF0E945A000C9461000C940000BA
:1000800087E68093C4001092C50088E18093C10088
:1000900078940895E0ECF0E0908195FFFDCF809397
:1000A000C6000895E0ECF0E080818823ECF78091B1
:1000B000C60008950E9440000E9452000E944A001B
:0600C000FBCFF894FFCF16
:00000001FF
