:100000000C9465000C9482000C9482000C94820085
:100010000C9482000C9482000C9482000C94820058
:100020000C9482000C9482000C9482000C94820048
:100030000C9482000C9482000C9482000C94820038
:100040000C9482000C9482000C9482000C94820028
:100050000C9482000C9482000C9482000C94820018
:100060000C9484000C948200E90013011301130125
:100070001301130113011301ED0013011301130107
:100080001301130113011301F100130113011301F3
:100090001301130113011301F500130113011301DF
:1000A0001301130113011301F800130113011301CC
:1000B00013011301130113010A01130113011301A9
:1000C00013011301130113010D0111241FBECFEF02
:1000D000D8E0DEBFCDBF11E0A0E0B1E0E4E6F4E09F
:1000E00002C005900D92AA30B107D9F721E0AAE02D
:1000F000B1E001C01D92AB30B207E1F70E94B1013F
:100100000C9430020C9400001F920F920FB60F92C5
:1001100011248F938091B900887F80930A018F9179
:100120000F900FBE0F901F9018958093B800ECEBC6
:10013000F0E080818560808378940895ECEBF0E0B6
:1001400080818069808380818F7D80830895809302
:10015000BB00ECEBF0E080818068808380818F7C45
:1001600080830895ECEBF0E08081806C8083808157
:100170008F7C808308958F929F92AF92BF92CF928F
:10018000DF92EF92FF920F931F93CF93DF937C0147
:10019000ECEBF0E09081906A9083FF200CF44DC06E
:1001A000490100E010E0CCEBD0E0A42EB12CC62E2B
:1001B000D12C88818823ECF7E0910A018E2F90E002
:1001C000FC013897E133F10570F5EC5CFF4F0C94BE
:1001D0002A02C6010E94A70026C0C6010E94A700ED
:1001E00022C0C5010E94A7001EC00E949E001BC025
:1001F0000E151F0554F4F401E00FF11F808190E00B
:100200000E94A7000F5F1F4F0EC00E949E000F5F4D
:100210001F4F09C00E949E0006C08881806A8883A3
:1002200088818F7E888387E691E00197F1F700C08F
:100230000000E016F1060CF0BCCFDF91CF911F91CA
:100240000F91FF90EF90DF90CF90BF90AF909F9075
:100250008F9008958F929F92AF92BF92CF92DF922C
:10026000EF92FF920F931F93CF93DF938C01ECEBF0
:10027000F0E09081906A908311230CF465C06A01CC
:10028000812C912CCCEBD0E00F2EFBEBAF2EB12CC0
:10029000F02DE62EF12C8FEFE81AF80A88818823DA
:1002A000ECF780910A018034F1F038F4803181F06C
:1002B000883391F08830F1F507C08035D1F088356A
:1002C000B9F18834B9F512C0C7010E94A70032C045
:1002D000C7010E94A7002EC08881806A8883888118
:1002E0008F7E888327C00E94B20024C00E949E0097
:1002F00021C08016910664F4F5018081F601E80DB5
:10030000F91D80830E94B200FFEF8F1A9F0A12C06E
:10031000F5018081F601E80DF91D808388818068F0
:10032000888388818F788883FFEF8F1A9F0A02C0A5
:100330000E949E0087E691E00197F1F700C000005F
:10034000081519050CF0AACFDF91CF911F910F91DD
:10035000FF90EF90DF90CF90BF90AF909F908F90E5
:100360000895CF93DF93CDB7DEB761970FB6F894BA
:10037000DEBF0FBECDBF8AE0E0E0F1E0DE011896FF
:1003800001900D928A95E1F788E40E94950080E83B
:100390008B831C821D821E821F829E012D5F3F4F18
:1003A00040E060EA84E090E00E94BB001B829E0176
:1003B0002D5F3F4F40E060EA81E090E00E94BB008B
:1003C00017E49E012D5F3F4F42E060EA80E090E03D
:1003D0000E94BB009E012D5F3F4FAE014F5F5F4FFC
:1003E00060EA81E090E00E942A011B838A81982FB5
:1003F00092959F70E8E0F0E0EC0FFD1FE90FF11D12
:1004000090819C838F70E8E0F0E0EC0FFD1FE80F17
:10041000F11D80818D838981982F92959F70E8E0EE
:10042000F0E0EC0FFD1FE90FF11D90819E838F70AE
:10043000E8E0F0E0EC0FFD1FE80FF11D80818F83F5
:100440009E012D5F3F4F40E060E785E090E00E9415
:10045000BB00B7CFEE0FFF1F0590F491E02D09947C
:04046000F894FFCF3E
:0A0464003F065B4F666D7D077F6F5A
:00000001FF
